:100000000C942F010C9460010C9460010C9460011D
:100010000C9460010C9460010C9460010C946001DC
:100020000C9460010C9460010C9460010C946001CC
:100030000C9460010C9460010C9460010C946001BC
:100040000C9460010C9460010C9460010C946001AC
:100050000C9460010C9460010C9460010C943504C4
:100060000C9460010C9460010C9460010C9460018C
:100070000C9460010C9460010C9460010C9460017C
:100080000C9460010C9460010C9460010C9460016C
:100090000C9460010C9460010C9460010C9460015C
:1000A0000C9460010C9460010C9460010C9460014C
:1000B0000C9460010C9460010C9460010C9460013C
:1000C0000C9460010C9460010C9460010C9460012C
:1000D0000C9460010C9460010C9460010C9460011C
:1000E0000C9460010C94C0010C94A9010C94BB0108
:1000F0000C94A5010C94AD010C9458050C949B0133
:100100000C94C1010C94B3010C94C5010C948E01A4
:100110000C94D9020C94DA020C948A010C94950187
:100120000C949F010C9492010C94B7010C948001E3
:100130000C942F040C9486010C94AC020000210056
:10014000240027002A002D003000330001010000A8
:10015000040107010A0100002200250028002B00ED
:100160002E003100340002010000050108010B01DE
:10017000000020002300260029002C002F00320060
:100180000001000003010601090105050505070539
:1001900008080808020202020A0A08080404040403
:1001A000010101010101010103030303030303032F
:1001B000040707070C0C0C0C0C0C0C0C02020202BE
:1001C00006060606060606060B0B0B0B0B0B0B0BA7
:1001D0000102102020080810204010204080020159
:1001E000020108040201010204081020408080403E
:1001F000201008040201800402018040201008043D
:1002000002010804020101020408102040800102DA
:1002100004081020408000000A0B02090C0D0E0893
:1002200007030401000000000000000000000000BF
:1002300000000000000000000000000000000000BE
:10024000000012111000000000000000000000007B
:10025000000000000000000000000000580511240C
:100260001FBECFEFD1E2DEBFCDBF00E00CBF12E07A
:10027000A0E0B2E0E0E0FBE000E00BBF02C00790CE
:100280000D92AE33B107D9F722E0AEE3B2E001C080
:100290001D92AF35B207E1F711E0CFE2D1E000E007
:1002A00006C021970109802FFE010E947605CE32FB
:1002B000D10780E00807A9F70E947F040C947E050F
:1002C0000C9400008150823108F05AC0E82FF0E011
:1002D0008827E259FE4F8F4F0C9476058E019201CC
:1002E000800186018A01C00195019B019F01A50142
:1002F000A901AD01B301B701C001BB01C101C50135
:10030000809180008F778093800008958091800095
:100310008F7DF9CF80918000877FF5CF84B58F776F
:1003200084BD089584B58F7DFBCF8091B0008F7719
:100330008093B00008958091B0008F7DF9CF8091B7
:1003400090008F77809390000895809190008F7D2A
:10035000F9CF80919000877FF5CF8091A0008F77B3
:100360008093A00008958091A0008F7DF9CF8091A7
:10037000A000877FF5CF809120018F7780932001A7
:100380000895809120018F7DF9CF80912001877F92
:10039000F5CFCF93DF93282F30E0F901EA5EFD4FD0
:1003A0008491F901E053FE4FD491F901E657FE4FD5
:1003B000C491CC23A1F081110E946201EC2FF0E0E6
:1003C000EE0FFF1FE059FE4FA591B491EC91ED2384
:1003D00081E090E009F480E0DF91CF91089580E022
:1003E00090E0FACF1F93CF93DF93282F30E0F901ED
:1003F000EA5EFD4F8491F901E053FE4FD491F9017B
:10040000E657FE4FC491CC23A9F0162F81110E940C
:100410006201EC2FF0E0EE0FFF1FEA5AFE4FA591AC
:10042000B4918FB7F894EC91111108C0D095DE23E8
:10043000DC938FBFDF91CF911F910895DE2BF8CF12
:10044000CF93DF9390E0FC01E053FE4F2491865759
:100450009E4FFC0184918823D1F090E0880F991F72
:10046000FC01E45CFE4FA591B491FC01EA5AFE4FF9
:10047000C591D49161110EC09FB7F8948C91E22F71
:10048000E0958E238C932881E223E8839FBFDF9140
:10049000CF9108958FB7F894EC91E22BEC938FBF36
:1004A000F6CF3FB7F8948091430290914402A09117
:1004B0004502B091460226B5A89B05C02F3F19F012
:1004C0000196A11DB11D3FBFBA2FA92F982F8827D4
:1004D000BC01CD01620F711D811D911D42E0660FAF
:1004E000771F881F991F4A95D1F708958F929F9281
:1004F000AF92BF92CF92DF92EF92FF920E94510291
:100500004B015C0188EEC82E83E0D82EE12CF12C43
:100510000E945102681979098A099B09683E734053
:1005200081059105A8F321E0C21AD108E108F1087C
:1005300088EE880E83E0981EA11CB11CC114D10462
:10054000E104F10429F7FF90EF90DF90CF90BF9086
:10055000AF909F908F900895AF92BF92CF92DF920D
:10056000EF92FF920F931F93CF93DF936C017B0168
:100570008B01040F151FEB015E01AE18BF08C017F9
:10058000D10759F06991D601ED91FC910190F0816C
:10059000E02DC6011995892B79F7C501DF91CF911F
:1005A0001F910F91FF90EF90DF90CF90BF90AF9091
:1005B0000895089590E080E00895FC0101900020E6
:1005C000E9F73197AF01481B590BBC0187E492E072
:1005D0000C94AC02CF93DF93EC0160E08E810E941B
:1005E000F20161E08E810E94F20160E08E810E9442
:1005F000F2018BE891E00197F1F7DF91CF91089537
:10060000CF92DF92EF92FF920F931F93CF93DF93DE
:100610006C017C0187E0E80EF11CD0E0C0E0062F01
:1006200010E0B8010C2E02C0759567950A94E2F7A8
:100630006170F70181917F010E94F2012196C4301F
:10064000D10579F7C601DF91CF911F910F91FF90EE
:10065000EF90DF90CF900C94EA02CF92DF92EF926E
:10066000FF920F931F93CF93DF93EC01F62E642F2D
:100670008C810E94F2018D818F3F19F060E00E9411
:10068000F2010F2D10E08F8584FF25C06E0187E0F9
:10069000C80ED11CF12CE12CB8010E2C02C07595AE
:1006A00067950A94E2F76170F60181916F010E94EB
:1006B000F201FFEFEF1AFF0A88E0E816F10461F794
:1006C000CE01DF91CF911F910F91FF90EF90DF90BE
:1006D000CF900C94EA02B80184E0759567958A95ED
:1006E000E1F7CE010E9400036F2DCE01DF91CF9183
:1006F0001F910F91FF90EF90DF90CF900C9400032B
:1007000040E0682F87E492E00C942D0381E00E9482
:1007100080038BE39FE10197F1F70895CF93DF9377
:10072000823029F4909156029860909356028093FB
:100730005A0210925B0280E480935C0280E1809315
:100740005D0280E580935E0261E080914B020E9431
:10075000200280914C028F3F19F061E00E9420023C
:1007600061E080914D020E942002C7E4D2E09E0128
:10077000275432408091560284FD0BC084E090E003
:1007800021962817390744F461E08E810E942002E7
:10079000EECF88E090E0F4CF8BE39DE00197F1F796
:1007A00060E080914B020E94F20160E080914D0276
:1007B0000E94F20180914C028F3F19F060E00E948C
:1007C000F2018091560284FD34C063E087E492E038
:1007D0000E940003CBE4D6E4CE010197F1F763E079
:1007E00087E492E00E9400032197F1F763E087E439
:1007F00092E00E94000383E592E00197F1F762E046
:1008000087E492E00E9400038091560280620E9479
:10081000800384E0809357028CE00E9480030E9452
:10082000860382E08093580286E0DF91CF910C949A
:10083000800380620E9480038BE496E40197F1F7C5
:100840008091560280620E94800383E592E00197C6
:10085000F1F78091560280620E948003D5CF41E07B
:100860000E942D0381E090E008951F920F920FB631
:100870000F9211242F933F938F939F93AF93BF9326
:1008800080913F0290914002A0914102B0914202BA
:1008900030913E0223E0230F2D3758F50196A11D1C
:1008A000B11D20933E0280933F0290934002A0939B
:1008B0004102B09342028091430290914402A09180
:1008C0004502B09146020196A11DB11D80934302DD
:1008D00090934402A0934502B0934602BF91AF911A
:1008E0009F918F913F912F910F900FBE0F901F906E
:1008F000189526E8230F0296A11DB11DD2CF78943A
:1009000084B5826084BD84B5816084BD85B5826014
:1009100085BD85B5816085BD80916E0081608093C5
:100920006E0010928100809181008260809381002E
:10093000809181008160809381008091800081603E
:10094000809380008091B10084608093B100809199
:10095000B00081608093B0008091910082608093AC
:10096000910080919100816080939100809190002E
:100970008160809390008091A10082608093A100AB
:100980008091A10081608093A1008091A00081608E
:100990008093A00080912101826080932101809149
:1009A00021018160809321018091200181608093E9
:1009B000200180917A00846080937A0080917A008F
:1009C000826080937A0080917A00816080937A00BF
:1009D00080917A00806880937A001092C10061E073
:1009E0008EE10E94200261E08EE10E94F20182E02D
:1009F0000E948E0360E086E10E94200260E087E1B1
:100A00000E94200261E089E10E94200261E08AE107
:100A10000E94200261E08BE10E9420028CE092E0C3
:100A20000E94DD020E9476020E948603C0E0D0E0B0
:100A300086E10E94C9018C0187E10E94C901012B56
:100A400009F1892B21F561E08AE10E94F20161E060
:100A500089E10E94F20160E08BE10E94F201E1E095
:100A600080915A028111E0E0E195F0E0E95BFD4FF1
:100A7000848980680E94800389E192E00E94DD02FF
:100A80000E9476022097A1F20E940000D1CF60E080
:100A90008AE10E94F20160E089E10E94F20161E0D6
:100AA0008BE10E94F2010E9486038DE292E0E6CF84
:100AB000E7E4F2E01382128284E092E09183808383
:100AC0008CE084838FEF85838BE0868385E087834A
:100AD00084E0808783E0818782E0828713861486A2
:100AE00015861686178681E00C948E03EE0FFF1F85
:100AF000881F8BBF0790F691E02D1994F894FFCFD3
:100B0000000000002F04AC02DA02D90253697374AA
:100B1000656D2048617A6972004B656D657220547D
:100B2000616B696C6920446567696C21004D6F7465
:0E0B30006F722043616C697369796F72000007
:00000001FF
